{
  "abi": [
    {
      "inputs": [
        {
          "internalType": "uint256",
          "name": "_investingEndDate",
          "type": "uint256"
        },
        {
          "internalType": "uint256",
          "name": "_votingDuration",
          "type": "uint256"
        },
        {
          "internalType": "uint256",
          "name": "_quorum",
          "type": "uint256"
        }
      ],
      "stateMutability": "nonpayable",
      "type": "constructor"
    },
    {
      "inputs": [],
      "name": "availableFunds",
      "outputs": [
        {
          "internalType": "uint256",
          "name": "",
          "type": "uint256"
        }
      ],
      "stateMutability": "view",
      "type": "function"
    },
    {
      "inputs": [
        {
          "internalType": "string",
          "name": "name",
          "type": "string"
        },
        {
          "internalType": "uint256",
          "name": "amount",
          "type": "uint256"
        },
        {
          "internalType": "address payable",
          "name": "recipient",
          "type": "address"
        }
      ],
      "name": "createProposal",
      "outputs": [],
      "stateMutability": "nonpayable",
      "type": "function"
    },
    {
      "inputs": [
        {
          "internalType": "uint256",
          "name": "proposalId",
          "type": "uint256"
        }
      ],
      "name": "executeProposal",
      "outputs": [],
      "stateMutability": "nonpayable",
      "type": "function"
    },
    {
      "inputs": [],
      "name": "invest",
      "outputs": [],
      "stateMutability": "payable",
      "type": "function"
    },
    {
      "inputs": [],
      "name": "investingEndDate",
      "outputs": [
        {
          "internalType": "uint256",
          "name": "",
          "type": "uint256"
        }
      ],
      "stateMutability": "view",
      "type": "function"
    },
    {
      "inputs": [
        {
          "internalType": "address",
          "name": "",
          "type": "address"
        }
      ],
      "name": "investors",
      "outputs": [
        {
          "internalType": "bool",
          "name": "",
          "type": "bool"
        }
      ],
      "stateMutability": "view",
      "type": "function"
    },
    {
      "inputs": [],
      "name": "nextProposalId",
      "outputs": [
        {
          "internalType": "uint256",
          "name": "",
          "type": "uint256"
        }
      ],
      "stateMutability": "view",
      "type": "function"
    },
    {
      "inputs": [
        {
          "internalType": "uint256",
          "name": "",
          "type": "uint256"
        }
      ],
      "name": "proposals",
      "outputs": [
        {
          "internalType": "uint256",
          "name": "id",
          "type": "uint256"
        },
        {
          "internalType": "string",
          "name": "name",
          "type": "string"
        },
        {
          "internalType": "uint256",
          "name": "amount",
          "type": "uint256"
        },
        {
          "internalType": "address payable",
          "name": "recipient",
          "type": "address"
        },
        {
          "internalType": "uint256",
          "name": "votes",
          "type": "uint256"
        },
        {
          "internalType": "uint256",
          "name": "end",
          "type": "uint256"
        },
        {
          "internalType": "bool",
          "name": "executed",
          "type": "bool"
        }
      ],
      "stateMutability": "view",
      "type": "function"
    },
    {
      "inputs": [],
      "name": "quorum",
      "outputs": [
        {
          "internalType": "uint256",
          "name": "",
          "type": "uint256"
        }
      ],
      "stateMutability": "view",
      "type": "function"
    },
    {
      "inputs": [
        {
          "internalType": "address",
          "name": "",
          "type": "address"
        }
      ],
      "name": "shares",
      "outputs": [
        {
          "internalType": "uint256",
          "name": "",
          "type": "uint256"
        }
      ],
      "stateMutability": "view",
      "type": "function"
    },
    {
      "inputs": [],
      "name": "totalShares",
      "outputs": [
        {
          "internalType": "uint256",
          "name": "",
          "type": "uint256"
        }
      ],
      "stateMutability": "view",
      "type": "function"
    },
    {
      "inputs": [
        {
          "internalType": "uint256",
          "name": "amount",
          "type": "uint256"
        },
        {
          "internalType": "address",
          "name": "to",
          "type": "address"
        }
      ],
      "name": "transfer",
      "outputs": [],
      "stateMutability": "payable",
      "type": "function"
    },
    {
      "inputs": [
        {
          "internalType": "uint256",
          "name": "proposalId",
          "type": "uint256"
        }
      ],
      "name": "vote",
      "outputs": [],
      "stateMutability": "nonpayable",
      "type": "function"
    },
    {
      "inputs": [],
      "name": "votingDuration",
      "outputs": [
        {
          "internalType": "uint256",
          "name": "",
          "type": "uint256"
        }
      ],
      "stateMutability": "view",
      "type": "function"
    },
    {
      "inputs": [
        {
          "internalType": "uint256",
          "name": "amount",
          "type": "uint256"
        }
      ],
      "name": "withdraw",
      "outputs": [],
      "stateMutability": "payable",
      "type": "function"
    }
  ],
  "bytecode": {
    "object": "0x608060405234801561001057600080fd5b5060405161126038038061126083398101604081905261002f9161015f565b42831161008f5760405162461bcd60e51b8152602060048201526024808201527f436f6e747269627574696f6e20656e642073686f756c6420626520696e2066756044820152637475726560e01b60648201526084015b60405180910390fd5b600082116100df5760405162461bcd60e51b815260206004820152601960248201527f53686f756c6420626520706f736974697665206e756d626572000000000000006044820152606401610086565b6000811180156100f0575060648111155b61013c5760405162461bcd60e51b815260206004820181905260248201527f51756f72756d2073686f756c64206265206265747765656e20302026203130306044820152606401610086565b600a80546001600160a01b0319163317905560069290925560075560085561018d565b60008060006060848603121561017457600080fd5b8351925060208401519150604084015190509250925092565b6110c48061019c6000396000f3fe6080604052600436106100e85760003560e01c80633a98ef391161008a5780636f7bc9be116100595780636f7bc9be14610230578063b7760c8f14610270578063ce7c2ac214610283578063e8b5e51f146102b057600080fd5b80633a98ef39146101ce57806346fcff4c146101e45780634729282f146101fa5780636ac1e01f1461021057600080fd5b8063132002fc116100c6578063132002fc1461016b5780631703a0181461018f5780632ab09d14146101a55780632e1a7d4d146101bb57600080fd5b80630121b93f146100ed578063013cf08b1461010f5780630d61b5191461014b575b600080fd5b3480156100f957600080fd5b5061010d610108366004610c7d565b6102b8565b005b34801561011b57600080fd5b5061012f61012a366004610c7d565b6103f8565b6040516101429796959493929190610c96565b60405180910390f35b34801561015757600080fd5b5061010d610166366004610c7d565b6104c9565b34801561017757600080fd5b5061018160075481565b604051908152602001610142565b34801561019b57600080fd5b5061018160085481565b3480156101b157600080fd5b5061018160095481565b61010d6101c9366004610c7d565b610686565b3480156101da57600080fd5b5061018160045481565b3480156101f057600080fd5b5061018160055481565b34801561020657600080fd5b5061018160065481565b34801561021c57600080fd5b5061010d61022b366004610d68565b6107fd565b34801561023c57600080fd5b5061026061024b366004610e33565b60006020819052908152604090205460ff1681565b6040519015158152602001610142565b61010d61027e366004610e57565b610977565b34801561028f57600080fd5b5061018161029e366004610e33565b60016020526000908152604090205481565b61010d610aab565b3360009081526020819052604090205460ff166102f05760405162461bcd60e51b81526004016102e790610e87565b60405180910390fd5b60008181526003602052604090206005015442106103415760405162461bcd60e51b815260206004820152600e60248201526d2b37ba34b7339034b99037bb32b960911b60448201526064016102e7565b33600090815260026020908152604080832084845290915290205460ff161561039c5760405162461bcd60e51b815260206004820152600d60248201526c105b1c9958591e481d9bdd1959609a1b60448201526064016102e7565b33600090815260016020908152604080832054848452600390925282206004018054919290916103cd908490610ec8565b909155505033600090815260026020908152604080832093835292905220805460ff19166001179055565b6003602052600090815260409020805460018201805491929161041a90610ee1565b80601f016020809104026020016040519081016040528092919081815260200182805461044690610ee1565b80156104935780601f1061046857610100808354040283529160200191610493565b820191906000526020600020905b81548152906001019060200180831161047657829003601f168201915b5050506002840154600385015460048601546005870154600690970154959692956001600160a01b039092169450925060ff1687565b600a546001600160a01b031633146105375760405162461bcd60e51b815260206004820152602b60248201527f4f6e6c792041646d696e2069732061626c6520746f206578656375746520746860448201526a34b990333ab731ba34b7b760a91b60648201526084016102e7565b6000818152600360205260409020600681015460ff161561058d5760405162461bcd60e51b815260206004820152601060248201526f105b1c9958591e48195e1958dd5d195960821b60448201526064016102e7565b428160050154106105d95760405162461bcd60e51b81526020600482015260166024820152752b37ba34b7339034b9903737ba103cb2ba1037bb32b960511b60448201526064016102e7565b60085460045482600401546105ee9190610f1b565b6105f9906064610f3d565b10156106475760405162461bcd60e51b815260206004820152601f60248201527f51756f72756d20726174696f206973206e6f74206869676820656e6f7567680060448201526064016102e7565b6000828152600360208190526040909120600601805460ff1916600117905560028201549082015461068291906001600160a01b0316610bde565b5050565b33600090815260208190526040902054819060ff166106b75760405162461bcd60e51b81526004016102e790610e87565b336000908152600160205260409020548111156107165760405162461bcd60e51b815260206004820152601a60248201527f496e73756666696369656e7420736861726573206e756d62657200000000000060448201526064016102e7565b8160055410156107615760405162461bcd60e51b81526020600482015260166024820152754e6f7420656e6f7567682044414f2062616c616e636560501b60448201526064016102e7565b3360009081526001602052604081208054849290610780908490610f54565b9250508190555081600560008282546107999190610f54565b9091555050604051339083156108fc029084906000818181858888f193505050501580156107cb573d6000803e3d6000fd5b5033600090815260016020526040812054900361068257336000908152602081905260409020805460ff191690555050565b3360009081526020819052604090205460ff1661082c5760405162461bcd60e51b81526004016102e790610e87565b81600554101561086f5760405162461bcd60e51b815260206004820152600e60248201526d616d6f756e7420746f6f2062696760901b60448201526064016102e7565b6040518060e001604052806009548152602001848152602001838152602001826001600160a01b0316815260200160008152602001600754426108b29190610ec8565b81526000602091820181905260095481526003825260409020825181559082015160018201906108e29082610fb5565b506040820151600282015560608201516003820180546001600160a01b0319166001600160a01b039092169190911790556080820151600482015560a082015160058083019190915560c0909201516006909101805460ff19169115159190911790558054839190600090610958908490610f54565b90915550506009805490600061096d83611075565b9190505550505050565b33600090815260208190526040902054829060ff166109a85760405162461bcd60e51b81526004016102e790610e87565b33600090815260016020526040902054811115610a075760405162461bcd60e51b815260206004820152601a60248201527f496e73756666696369656e7420736861726573206e756d62657200000000000060448201526064016102e7565b3360009081526001602052604081208054859290610a26908490610f54565b90915550506001600160a01b03821660009081526001602052604081208054859290610a53908490610ec8565b90915550506001600160a01b038216600090815260208181526040808320805460ff191660019081179091553384529091528120549003610aa657336000908152602081905260409020805460ff191690555b505050565b60003411610afb5760405162461bcd60e51b815260206004820152601e60248201527f53756d2073686f756c6420626520686967686572207468616e207a65726f000060448201526064016102e7565b6006544210610b725760405162461bcd60e51b815260206004820152603860248201527f4973206e6f7420706f737369626c6520746f20696e766573742061667465722060448201527f44414f2066756e6472616973696e6720656e642064617465000000000000000060648201526084016102e7565b33600090815260208181526040808320805460ff1916600190811790915590915281208054349290610ba5908490610ec8565b925050819055503460056000828254610bbe9190610ec8565b925050819055503460046000828254610bd79190610ec8565b9091555050565b600554821115610c305760405162461bcd60e51b815260206004820152601960248201527f6e6f7420656e6f75676820617661696c61626c6546756e64730000000000000060448201526064016102e7565b8160056000828254610c429190610f54565b90915550506040516001600160a01b0382169083156108fc029084906000818181858888f19350505050158015610aa6573d6000803e3d6000fd5b600060208284031215610c8f57600080fd5b5035919050565b8781526000602060e08184015288518060e085015260005b81811015610ccb578a810183015185820161010001528201610cae565b506101009150600082828601015281601f19601f83011685010192505050866040830152610d0460608301876001600160a01b03169052565b8460808301528360a0830152610d1e60c083018415159052565b98975050505050505050565b634e487b7160e01b600052604160045260246000fd5b6001600160a01b0381168114610d5557600080fd5b50565b8035610d6381610d40565b919050565b600080600060608486031215610d7d57600080fd5b833567ffffffffffffffff80821115610d9557600080fd5b818601915086601f830112610da957600080fd5b813581811115610dbb57610dbb610d2a565b604051601f8201601f19908116603f01168101908382118183101715610de357610de3610d2a565b81604052828152896020848701011115610dfc57600080fd5b82602086016020830137600060208483010152809750505050505060208401359150610e2a60408501610d58565b90509250925092565b600060208284031215610e4557600080fd5b8135610e5081610d40565b9392505050565b60008060408385031215610e6a57600080fd5b823591506020830135610e7c81610d40565b809150509250929050565b6020808252601190820152701b9bdb8b5a5b9d995cdd1bdc8818d85b1b607a1b604082015260600190565b634e487b7160e01b600052601160045260246000fd5b80820180821115610edb57610edb610eb2565b92915050565b600181811c90821680610ef557607f821691505b602082108103610f1557634e487b7160e01b600052602260045260246000fd5b50919050565b600082610f3857634e487b7160e01b600052601260045260246000fd5b500490565b8082028115828204841417610edb57610edb610eb2565b81810381811115610edb57610edb610eb2565b601f821115610aa657600081815260208120601f850160051c81016020861015610f8e5750805b601f850160051c820191505b81811015610fad57828155600101610f9a565b505050505050565b815167ffffffffffffffff811115610fcf57610fcf610d2a565b610fe381610fdd8454610ee1565b84610f67565b602080601f83116001811461101857600084156110005750858301515b600019600386901b1c1916600185901b178555610fad565b600085815260208120601f198616915b8281101561104757888601518255948401946001909101908401611028565b50858210156110655787850151600019600388901b60f8161c191681555b5050505050600190811b01905550565b60006001820161108757611087610eb2565b506001019056fea264697066735822122091f3f54b98f93ef48fea6a4d4e45554b82101addb641aa3085a458a1b98e8b8b64736f6c63430008110033",
    "linkReferences": {}
  },
  "methodIdentifiers": {
    "availableFunds()": "46fcff4c",
    "createProposal(string,uint256,address)": "6ac1e01f",
    "executeProposal(uint256)": "0d61b519",
    "invest()": "e8b5e51f",
    "investingEndDate()": "4729282f",
    "investors(address)": "6f7bc9be",
    "nextProposalId()": "2ab09d14",
    "proposals(uint256)": "013cf08b",
    "quorum()": "1703a018",
    "shares(address)": "ce7c2ac2",
    "totalShares()": "3a98ef39",
    "transfer(uint256,address)": "b7760c8f",
    "vote(uint256)": "0121b93f",
    "votingDuration()": "132002fc",
    "withdraw(uint256)": "2e1a7d4d"
  },
  "id": 14
}