{
  "abi": [
    {
      "inputs": [
        {
          "internalType": "uint256",
          "name": "_investingEndDate",
          "type": "uint256"
        },
        {
          "internalType": "uint256",
          "name": "_votingDuration",
          "type": "uint256"
        },
        {
          "internalType": "uint256",
          "name": "_quorum",
          "type": "uint256"
        }
      ],
      "stateMutability": "nonpayable",
      "type": "constructor"
    },
    {
      "inputs": [],
      "name": "availableFunds",
      "outputs": [
        {
          "internalType": "uint256",
          "name": "",
          "type": "uint256"
        }
      ],
      "stateMutability": "view",
      "type": "function"
    },
    {
      "inputs": [
        {
          "internalType": "string",
          "name": "name",
          "type": "string"
        },
        {
          "internalType": "uint256",
          "name": "amount",
          "type": "uint256"
        },
        {
          "internalType": "address payable",
          "name": "recipient",
          "type": "address"
        }
      ],
      "name": "createProposal",
      "outputs": [],
      "stateMutability": "nonpayable",
      "type": "function"
    },
    {
      "inputs": [
        {
          "internalType": "uint256",
          "name": "proposalId",
          "type": "uint256"
        }
      ],
      "name": "executeProposal",
      "outputs": [],
      "stateMutability": "nonpayable",
      "type": "function"
    },
    {
      "inputs": [],
      "name": "invest",
      "outputs": [],
      "stateMutability": "payable",
      "type": "function"
    },
    {
      "inputs": [],
      "name": "investingEndDate",
      "outputs": [
        {
          "internalType": "uint256",
          "name": "",
          "type": "uint256"
        }
      ],
      "stateMutability": "view",
      "type": "function"
    },
    {
      "inputs": [
        {
          "internalType": "address",
          "name": "",
          "type": "address"
        }
      ],
      "name": "investors",
      "outputs": [
        {
          "internalType": "bool",
          "name": "",
          "type": "bool"
        }
      ],
      "stateMutability": "view",
      "type": "function"
    },
    {
      "inputs": [],
      "name": "nextProposalId",
      "outputs": [
        {
          "internalType": "uint256",
          "name": "",
          "type": "uint256"
        }
      ],
      "stateMutability": "view",
      "type": "function"
    },
    {
      "inputs": [
        {
          "internalType": "uint256",
          "name": "",
          "type": "uint256"
        }
      ],
      "name": "proposals",
      "outputs": [
        {
          "internalType": "uint256",
          "name": "id",
          "type": "uint256"
        },
        {
          "internalType": "string",
          "name": "name",
          "type": "string"
        },
        {
          "internalType": "uint256",
          "name": "amount",
          "type": "uint256"
        },
        {
          "internalType": "address payable",
          "name": "recipient",
          "type": "address"
        },
        {
          "internalType": "uint256",
          "name": "votes",
          "type": "uint256"
        },
        {
          "internalType": "uint256",
          "name": "end",
          "type": "uint256"
        },
        {
          "internalType": "bool",
          "name": "executed",
          "type": "bool"
        }
      ],
      "stateMutability": "view",
      "type": "function"
    },
    {
      "inputs": [],
      "name": "quorum",
      "outputs": [
        {
          "internalType": "uint256",
          "name": "",
          "type": "uint256"
        }
      ],
      "stateMutability": "view",
      "type": "function"
    },
    {
      "inputs": [
        {
          "internalType": "address",
          "name": "",
          "type": "address"
        }
      ],
      "name": "shares",
      "outputs": [
        {
          "internalType": "uint256",
          "name": "",
          "type": "uint256"
        }
      ],
      "stateMutability": "view",
      "type": "function"
    },
    {
      "inputs": [],
      "name": "totalShares",
      "outputs": [
        {
          "internalType": "uint256",
          "name": "",
          "type": "uint256"
        }
      ],
      "stateMutability": "view",
      "type": "function"
    },
    {
      "inputs": [
        {
          "internalType": "uint256",
          "name": "amount",
          "type": "uint256"
        },
        {
          "internalType": "address",
          "name": "to",
          "type": "address"
        }
      ],
      "name": "transfer",
      "outputs": [],
      "stateMutability": "payable",
      "type": "function"
    },
    {
      "inputs": [
        {
          "internalType": "uint256",
          "name": "proposalId",
          "type": "uint256"
        }
      ],
      "name": "vote",
      "outputs": [],
      "stateMutability": "nonpayable",
      "type": "function"
    },
    {
      "inputs": [
        {
          "internalType": "address",
          "name": "",
          "type": "address"
        },
        {
          "internalType": "uint256",
          "name": "",
          "type": "uint256"
        }
      ],
      "name": "votes",
      "outputs": [
        {
          "internalType": "bool",
          "name": "",
          "type": "bool"
        }
      ],
      "stateMutability": "view",
      "type": "function"
    },
    {
      "inputs": [],
      "name": "votingDuration",
      "outputs": [
        {
          "internalType": "uint256",
          "name": "",
          "type": "uint256"
        }
      ],
      "stateMutability": "view",
      "type": "function"
    },
    {
      "inputs": [
        {
          "internalType": "uint256",
          "name": "amount",
          "type": "uint256"
        }
      ],
      "name": "withdraw",
      "outputs": [],
      "stateMutability": "payable",
      "type": "function"
    }
  ],
  "bytecode": {
    "object": "0x608060405234801561001057600080fd5b5060405161130038038061130083398101604081905261002f9161015f565b42831161008f5760405162461bcd60e51b8152602060048201526024808201527f436f6e747269627574696f6e20656e642073686f756c6420626520696e2066756044820152637475726560e01b60648201526084015b60405180910390fd5b600082116100df5760405162461bcd60e51b815260206004820152601960248201527f53686f756c6420626520706f736974697665206e756d626572000000000000006044820152606401610086565b6000811180156100f0575060648111155b61013c5760405162461bcd60e51b815260206004820181905260248201527f51756f72756d2073686f756c64206265206265747765656e20302026203130306044820152606401610086565b600a80546001600160a01b0319163317905560069290925560075560085561018d565b60008060006060848603121561017457600080fd5b8351925060208401519150604084015190509250925092565b6111648061019c6000396000f3fe6080604052600436106100f35760003560e01c806346fcff4c1161008a5780639f2524ee116100595780639f2524ee1461027b578063b7760c8f146102b6578063ce7c2ac2146102c9578063e8b5e51f146102f657600080fd5b806346fcff4c146101ef5780634729282f146102055780636ac1e01f1461021b5780636f7bc9be1461023b57600080fd5b80631703a018116100c65780631703a0181461019a5780632ab09d14146101b05780632e1a7d4d146101c65780633a98ef39146101d957600080fd5b80630121b93f146100f8578063013cf08b1461011a5780630d61b51914610156578063132002fc14610176575b600080fd5b34801561010457600080fd5b50610118610113366004610cf1565b6102fe565b005b34801561012657600080fd5b5061013a610135366004610cf1565b61043e565b60405161014d9796959493929190610d0a565b60405180910390f35b34801561016257600080fd5b50610118610171366004610cf1565b61050f565b34801561018257600080fd5b5061018c60075481565b60405190815260200161014d565b3480156101a657600080fd5b5061018c60085481565b3480156101bc57600080fd5b5061018c60095481565b6101186101d4366004610cf1565b6106cc565b3480156101e557600080fd5b5061018c60045481565b3480156101fb57600080fd5b5061018c60055481565b34801561021157600080fd5b5061018c60065481565b34801561022757600080fd5b50610118610236366004610ddc565b610843565b34801561024757600080fd5b5061026b610256366004610ea7565b60006020819052908152604090205460ff1681565b604051901515815260200161014d565b34801561028757600080fd5b5061026b610296366004610ecb565b600260209081526000928352604080842090915290825290205460ff1681565b6101186102c4366004610ef7565b6109bd565b3480156102d557600080fd5b5061018c6102e4366004610ea7565b60016020526000908152604090205481565b610118610b1f565b3360009081526020819052604090205460ff166103365760405162461bcd60e51b815260040161032d90610f27565b60405180910390fd5b60008181526003602052604090206005015442106103875760405162461bcd60e51b815260206004820152600e60248201526d2b37ba34b7339034b99037bb32b960911b604482015260640161032d565b33600090815260026020908152604080832084845290915290205460ff16156103e25760405162461bcd60e51b815260206004820152600d60248201526c105b1c9958591e481d9bdd1959609a1b604482015260640161032d565b3360009081526001602090815260408083205484845260039092528220600401805491929091610413908490610f68565b909155505033600090815260026020908152604080832093835292905220805460ff19166001179055565b6003602052600090815260409020805460018201805491929161046090610f81565b80601f016020809104026020016040519081016040528092919081815260200182805461048c90610f81565b80156104d95780601f106104ae576101008083540402835291602001916104d9565b820191906000526020600020905b8154815290600101906020018083116104bc57829003601f168201915b5050506002840154600385015460048601546005870154600690970154959692956001600160a01b039092169450925060ff1687565b600a546001600160a01b0316331461057d5760405162461bcd60e51b815260206004820152602b60248201527f4f6e6c792041646d696e2069732061626c6520746f206578656375746520746860448201526a34b990333ab731ba34b7b760a91b606482015260840161032d565b6000818152600360205260409020600681015460ff16156105d35760405162461bcd60e51b815260206004820152601060248201526f105b1c9958591e48195e1958dd5d195960821b604482015260640161032d565b4281600501541061061f5760405162461bcd60e51b81526020600482015260166024820152752b37ba34b7339034b9903737ba103cb2ba1037bb32b960511b604482015260640161032d565b60085460045482600401546106349190610fbb565b61063f906064610fdd565b101561068d5760405162461bcd60e51b815260206004820152601f60248201527f51756f72756d20726174696f206973206e6f74206869676820656e6f75676800604482015260640161032d565b6000828152600360208190526040909120600601805460ff191660011790556002820154908201546106c891906001600160a01b0316610c52565b5050565b33600090815260208190526040902054819060ff166106fd5760405162461bcd60e51b815260040161032d90610f27565b3360009081526001602052604090205481111561075c5760405162461bcd60e51b815260206004820152601a60248201527f496e73756666696369656e7420736861726573206e756d626572000000000000604482015260640161032d565b8160055410156107a75760405162461bcd60e51b81526020600482015260166024820152754e6f7420656e6f7567682044414f2062616c616e636560501b604482015260640161032d565b33600090815260016020526040812080548492906107c6908490610ff4565b9250508190555081600560008282546107df9190610ff4565b9091555050604051339083156108fc029084906000818181858888f19350505050158015610811573d6000803e3d6000fd5b503360009081526001602052604081205490036106c857336000908152602081905260409020805460ff191690555050565b3360009081526020819052604090205460ff166108725760405162461bcd60e51b815260040161032d90610f27565b8160055410156108b55760405162461bcd60e51b815260206004820152600e60248201526d616d6f756e7420746f6f2062696760901b604482015260640161032d565b6040518060e001604052806009548152602001848152602001838152602001826001600160a01b0316815260200160008152602001600754426108f89190610f68565b81526000602091820181905260095481526003825260409020825181559082015160018201906109289082611055565b506040820151600282015560608201516003820180546001600160a01b0319166001600160a01b039092169190911790556080820151600482015560a082015160058083019190915560c0909201516006909101805460ff1916911515919091179055805483919060009061099e908490610ff4565b9091555050600980549060006109b383611115565b9190505550505050565b33600090815260208190526040902054829060ff166109ee5760405162461bcd60e51b815260040161032d90610f27565b33600090815260016020526040902054811115610a4d5760405162461bcd60e51b815260206004820152601a60248201527f496e73756666696369656e7420736861726573206e756d626572000000000000604482015260640161032d565b3360009081526001602052604081208054859290610a6c908490610ff4565b90915550506001600160a01b03821660009081526001602052604081208054859290610a99908490610f68565b9091555050336000908152600160205260408120549003610acc57336000908152602081905260409020805460ff191690555b6001600160a01b038216600090815260208181526040808320805460ff191660019081179091553384529091528120549003610b1a57336000908152602081905260409020805460ff191690555b505050565b60003411610b6f5760405162461bcd60e51b815260206004820152601e60248201527f53756d2073686f756c6420626520686967686572207468616e207a65726f0000604482015260640161032d565b6006544210610be65760405162461bcd60e51b815260206004820152603860248201527f4973206e6f7420706f737369626c6520746f20696e766573742061667465722060448201527f44414f2066756e6472616973696e6720656e6420646174650000000000000000606482015260840161032d565b33600090815260208181526040808320805460ff1916600190811790915590915281208054349290610c19908490610f68565b925050819055503460056000828254610c329190610f68565b925050819055503460046000828254610c4b9190610f68565b9091555050565b600554821115610ca45760405162461bcd60e51b815260206004820152601960248201527f6e6f7420656e6f75676820617661696c61626c6546756e647300000000000000604482015260640161032d565b8160056000828254610cb69190610ff4565b90915550506040516001600160a01b0382169083156108fc029084906000818181858888f19350505050158015610b1a573d6000803e3d6000fd5b600060208284031215610d0357600080fd5b5035919050565b8781526000602060e08184015288518060e085015260005b81811015610d3f578a810183015185820161010001528201610d22565b506101009150600082828601015281601f19601f83011685010192505050866040830152610d7860608301876001600160a01b03169052565b8460808301528360a0830152610d9260c083018415159052565b98975050505050505050565b634e487b7160e01b600052604160045260246000fd5b6001600160a01b0381168114610dc957600080fd5b50565b8035610dd781610db4565b919050565b600080600060608486031215610df157600080fd5b833567ffffffffffffffff80821115610e0957600080fd5b818601915086601f830112610e1d57600080fd5b813581811115610e2f57610e2f610d9e565b604051601f8201601f19908116603f01168101908382118183101715610e5757610e57610d9e565b81604052828152896020848701011115610e7057600080fd5b82602086016020830137600060208483010152809750505050505060208401359150610e9e60408501610dcc565b90509250925092565b600060208284031215610eb957600080fd5b8135610ec481610db4565b9392505050565b60008060408385031215610ede57600080fd5b8235610ee981610db4565b946020939093013593505050565b60008060408385031215610f0a57600080fd5b823591506020830135610f1c81610db4565b809150509250929050565b6020808252601190820152701b9bdb8b5a5b9d995cdd1bdc8818d85b1b607a1b604082015260600190565b634e487b7160e01b600052601160045260246000fd5b80820180821115610f7b57610f7b610f52565b92915050565b600181811c90821680610f9557607f821691505b602082108103610fb557634e487b7160e01b600052602260045260246000fd5b50919050565b600082610fd857634e487b7160e01b600052601260045260246000fd5b500490565b8082028115828204841417610f7b57610f7b610f52565b81810381811115610f7b57610f7b610f52565b601f821115610b1a57600081815260208120601f850160051c8101602086101561102e5750805b601f850160051c820191505b8181101561104d5782815560010161103a565b505050505050565b815167ffffffffffffffff81111561106f5761106f610d9e565b6110838161107d8454610f81565b84611007565b602080601f8311600181146110b857600084156110a05750858301515b600019600386901b1c1916600185901b17855561104d565b600085815260208120601f198616915b828110156110e7578886015182559484019460019091019084016110c8565b50858210156111055787850151600019600388901b60f8161c191681555b5050505050600190811b01905550565b60006001820161112757611127610f52565b506001019056fea264697066735822122048b986496bebc46cf90272001f54b5ea56aa1f4ba0ac8cd4e3aec75463ee95e864736f6c63430008110033",
    "linkReferences": {}
  },
  "methodIdentifiers": {
    "availableFunds()": "46fcff4c",
    "createProposal(string,uint256,address)": "6ac1e01f",
    "executeProposal(uint256)": "0d61b519",
    "invest()": "e8b5e51f",
    "investingEndDate()": "4729282f",
    "investors(address)": "6f7bc9be",
    "nextProposalId()": "2ab09d14",
    "proposals(uint256)": "013cf08b",
    "quorum()": "1703a018",
    "shares(address)": "ce7c2ac2",
    "totalShares()": "3a98ef39",
    "transfer(uint256,address)": "b7760c8f",
    "vote(uint256)": "0121b93f",
    "votes(address,uint256)": "9f2524ee",
    "votingDuration()": "132002fc",
    "withdraw(uint256)": "2e1a7d4d"
  },
  "id": 15
}