{
  "abi": [
    {
      "inputs": [],
      "stateMutability": "nonpayable",
      "type": "constructor"
    },
    {
      "inputs": [
        {
          "internalType": "address[]",
          "name": "_voters",
          "type": "address[]"
        }
      ],
      "name": "addVoters",
      "outputs": [],
      "stateMutability": "nonpayable",
      "type": "function"
    },
    {
      "inputs": [],
      "name": "admin",
      "outputs": [
        {
          "internalType": "address",
          "name": "",
          "type": "address"
        }
      ],
      "stateMutability": "view",
      "type": "function"
    },
    {
      "inputs": [
        {
          "internalType": "uint256",
          "name": "",
          "type": "uint256"
        }
      ],
      "name": "ballots",
      "outputs": [
        {
          "internalType": "uint256",
          "name": "id",
          "type": "uint256"
        },
        {
          "internalType": "string",
          "name": "name",
          "type": "string"
        },
        {
          "internalType": "uint256",
          "name": "end",
          "type": "uint256"
        }
      ],
      "stateMutability": "view",
      "type": "function"
    },
    {
      "inputs": [
        {
          "internalType": "string",
          "name": "name",
          "type": "string"
        },
        {
          "internalType": "string[]",
          "name": "choices",
          "type": "string[]"
        },
        {
          "internalType": "uint256",
          "name": "offset",
          "type": "uint256"
        }
      ],
      "name": "createBallot",
      "outputs": [],
      "stateMutability": "nonpayable",
      "type": "function"
    },
    {
      "inputs": [
        {
          "internalType": "uint256",
          "name": "i",
          "type": "uint256"
        }
      ],
      "name": "getChoices",
      "outputs": [
        {
          "components": [
            {
              "internalType": "uint256",
              "name": "id",
              "type": "uint256"
            },
            {
              "internalType": "string",
              "name": "name",
              "type": "string"
            },
            {
              "internalType": "uint256",
              "name": "votes",
              "type": "uint256"
            }
          ],
          "internalType": "struct Voting.Choice[]",
          "name": "",
          "type": "tuple[]"
        }
      ],
      "stateMutability": "view",
      "type": "function"
    },
    {
      "inputs": [],
      "name": "nextBallotId",
      "outputs": [
        {
          "internalType": "uint256",
          "name": "",
          "type": "uint256"
        }
      ],
      "stateMutability": "view",
      "type": "function"
    },
    {
      "inputs": [
        {
          "internalType": "uint256",
          "name": "ballotId",
          "type": "uint256"
        }
      ],
      "name": "results",
      "outputs": [
        {
          "components": [
            {
              "internalType": "uint256",
              "name": "id",
              "type": "uint256"
            },
            {
              "internalType": "string",
              "name": "name",
              "type": "string"
            },
            {
              "internalType": "uint256",
              "name": "votes",
              "type": "uint256"
            }
          ],
          "internalType": "struct Voting.Choice[]",
          "name": "",
          "type": "tuple[]"
        }
      ],
      "stateMutability": "view",
      "type": "function"
    },
    {
      "inputs": [
        {
          "internalType": "uint256",
          "name": "ballotId",
          "type": "uint256"
        },
        {
          "internalType": "uint256",
          "name": "choiceId",
          "type": "uint256"
        }
      ],
      "name": "vote",
      "outputs": [],
      "stateMutability": "nonpayable",
      "type": "function"
    },
    {
      "inputs": [
        {
          "internalType": "address",
          "name": "",
          "type": "address"
        }
      ],
      "name": "voters",
      "outputs": [
        {
          "internalType": "bool",
          "name": "",
          "type": "bool"
        }
      ],
      "stateMutability": "view",
      "type": "function"
    },
    {
      "inputs": [
        {
          "internalType": "address",
          "name": "",
          "type": "address"
        },
        {
          "internalType": "uint256",
          "name": "",
          "type": "uint256"
        }
      ],
      "name": "votes",
      "outputs": [
        {
          "internalType": "bool",
          "name": "",
          "type": "bool"
        }
      ],
      "stateMutability": "view",
      "type": "function"
    }
  ],
  "bytecode": {
    "object": "0x608060405234801561001057600080fd5b50600080546001600160a01b03191633179055610f0a806100326000396000f3fe608060405234801561001057600080fd5b506004361061009e5760003560e01c80639f2524ee116100665780639f2524ee14610129578063a3ec138d14610167578063b384abef1461018a578063dc6bfbb51461019d578063f851a440146101b457600080fd5b806318da2cb2146100a35780631b0c27da146100cc57806320faae8e146100df5780635c632b38146100f45780638203373a14610116575b600080fd5b6100b66100b13660046109a1565b6101df565b6040516100c39190610a00565b60405180910390f35b6100b66100da3660046109a1565b6102fa565b6100f26100ed366004610b38565b610483565b005b6101076101023660046109a1565b6106d1565b6040516100c393929190610c27565b6100f2610124366004610c50565b61077c565b610157610137366004610ce1565b600360209081526000928352604080842090915290825290205460ff1681565b60405190151581526020016100c3565b610157610175366004610d0b565b60016020526000908152604090205460ff1681565b6100f2610198366004610d2d565b6107f2565b6101a660045481565b6040519081526020016100c3565b6000546101c7906001600160a01b031681565b6040516001600160a01b0390911681526020016100c3565b606060026000838152602001908152602001600020600201805480602002602001604051908101604052809291908181526020016000905b828210156102ef57838290600052602060002090600302016040518060600160405290816000820154815260200160018201805461025490610d4f565b80601f016020809104026020016040519081016040528092919081815260200182805461028090610d4f565b80156102cd5780601f106102a2576101008083540402835291602001916102cd565b820191906000526020600020905b8154815290600101906020018083116102b057829003601f168201915b5050505050815260200160028201548152505081526020019060010190610217565b505050509050919050565b600081815260026020526040902060030154606090421161037e5760405162461bcd60e51b815260206004820152603360248201527f526573756c74732061726520617661696c61626c65206f6e6c7920666f72207460448201527268652066696e697368656420766f74696e677360681b60648201526084015b60405180910390fd5b60008281526002602081815260408084209092018054835181840281018401909452808452929390929184015b828210156102ef5783829060005260206000209060030201604051806060016040529081600082015481526020016001820180546103e890610d4f565b80601f016020809104026020016040519081016040528092919081815260200182805461041490610d4f565b80156104615780601f1061043657610100808354040283529160200191610461565b820191906000526020600020905b81548152906001019060200180831161044457829003601f168201915b50505050508152602001600282015481525050815260200190600101906103ab565b6000546001600160a01b031633146104cb5760405162461bcd60e51b815260206004820152600b60248201526a4f6e6c792041646d696e2160a81b6044820152606401610375565b82516000036105125760405162461bcd60e51b81526020600482015260136024820152724e616d652063616e277420626520656d70747960681b6044820152606401610375565b60028251101561056f5760405162461bcd60e51b815260206004820152602260248201527f54686572652073686f756c64206265206174206c6561737420322063686f6963604482015261657360f01b6064820152608401610375565b8042106105d25760405162461bcd60e51b815260206004820152602b60248201527f43616e277420637265617465206120766f74696e67207769746820746865206460448201526a185d19481a5b881c185cdd60aa1b6064820152608401610375565b60045460008181526002602052604090209081556001016105f38482610dd7565b5060045460009081526002602052604081206003018290555b82518110156106b657600260006004548152602001908152602001600020600201604051806060016040528083815260200185848151811061065057610650610e97565b6020908102919091018101518252600091810182905283546001818101865594835291819020835160039093020191825582015191929091908201906106969082610dd7565b5060408201518160020155505080806106ae90610ead565b91505061060c565b50600480549060006106c783610ead565b9190505550505050565b600260205260009081526040902080546001820180549192916106f390610d4f565b80601f016020809104026020016040519081016040528092919081815260200182805461071f90610d4f565b801561076c5780601f106107415761010080835404028352916020019161076c565b820191906000526020600020905b81548152906001019060200180831161074f57829003601f168201915b5050505050908060030154905083565b60005b818110156107ed57600180600085858581811061079e5761079e610e97565b90506020020160208101906107b39190610d0b565b6001600160a01b031681526020810191909152604001600020805460ff1916911515919091179055806107e581610ead565b91505061077f565b505050565b3360009081526001602081905260409091205460ff161515146108575760405162461bcd60e51b815260206004820152601c60248201527f4f6e6c7920646566696e656420766f746572732063616e20766f7465000000006044820152606401610375565b33600090815260036020908152604080832085845290915290205460ff16156108c25760405162461bcd60e51b815260206004820152601860248201527f566f7465722063616e20766f7465206f6e6c79206f6e636500000000000000006044820152606401610375565b60008281526002602052604090206003015442106109305760405162461bcd60e51b815260206004820152602560248201527f43616e206f6e6c7920766f746520756e74696c2074686520656e64206f6620766044820152646f74696e6760d81b6064820152608401610375565b60008281526002602081905260409091200180548290811061095457610954610e97565b60009182526020822060026003909202010180549161097283610ead565b909155505033600090815260036020908152604080832094835293905291909120805460ff1916600117905550565b6000602082840312156109b357600080fd5b5035919050565b6000815180845260005b818110156109e0576020818501810151868301820152016109c4565b506000602082860101526020601f19601f83011685010191505092915050565b60006020808301818452808551808352604092508286019150828160051b87010184880160005b83811015610a7357603f19898403018552815160608151855288820151818a870152610a55828701826109ba565b92890151958901959095525094870194925090860190600101610a27565b509098975050505050505050565b634e487b7160e01b600052604160045260246000fd5b604051601f8201601f1916810167ffffffffffffffff81118282101715610ac057610ac0610a81565b604052919050565b600082601f830112610ad957600080fd5b813567ffffffffffffffff811115610af357610af3610a81565b610b06601f8201601f1916602001610a97565b818152846020838601011115610b1b57600080fd5b816020850160208301376000918101602001919091529392505050565b600080600060608486031215610b4d57600080fd5b833567ffffffffffffffff80821115610b6557600080fd5b610b7187838801610ac8565b9450602091508186013581811115610b8857600080fd5b8601601f81018813610b9957600080fd5b803582811115610bab57610bab610a81565b8060051b610bba858201610a97565b918252828101850191858101908b841115610bd457600080fd5b86850192505b83831015610c1057823586811115610bf25760008081fd5b610c008d8983890101610ac8565b8352509186019190860190610bda565b989b989a5050505060409690960135955050505050565b838152606060208201526000610c4060608301856109ba565b9050826040830152949350505050565b60008060208385031215610c6357600080fd5b823567ffffffffffffffff80821115610c7b57600080fd5b818501915085601f830112610c8f57600080fd5b813581811115610c9e57600080fd5b8660208260051b8501011115610cb357600080fd5b60209290920196919550909350505050565b80356001600160a01b0381168114610cdc57600080fd5b919050565b60008060408385031215610cf457600080fd5b610cfd83610cc5565b946020939093013593505050565b600060208284031215610d1d57600080fd5b610d2682610cc5565b9392505050565b60008060408385031215610d4057600080fd5b50508035926020909101359150565b600181811c90821680610d6357607f821691505b602082108103610d8357634e487b7160e01b600052602260045260246000fd5b50919050565b601f8211156107ed57600081815260208120601f850160051c81016020861015610db05750805b601f850160051c820191505b81811015610dcf57828155600101610dbc565b505050505050565b815167ffffffffffffffff811115610df157610df1610a81565b610e0581610dff8454610d4f565b84610d89565b602080601f831160018114610e3a5760008415610e225750858301515b600019600386901b1c1916600185901b178555610dcf565b600085815260208120601f198616915b82811015610e6957888601518255948401946001909101908401610e4a565b5085821015610e875787850151600019600388901b60f8161c191681555b5050505050600190811b01905550565b634e487b7160e01b600052603260045260246000fd5b600060018201610ecd57634e487b7160e01b600052601160045260246000fd5b506001019056fea2646970667358221220121ca8a35bf2b6d52b0c6c06e11cac879146939ddc70276ca20800fea19ee4cc64736f6c63430008110033",
    "linkReferences": {}
  },
  "methodIdentifiers": {
    "addVoters(address[])": "8203373a",
    "admin()": "f851a440",
    "ballots(uint256)": "5c632b38",
    "createBallot(string,string[],uint256)": "20faae8e",
    "getChoices(uint256)": "18da2cb2",
    "nextBallotId()": "dc6bfbb5",
    "results(uint256)": "1b0c27da",
    "vote(uint256,uint256)": "b384abef",
    "voters(address)": "a3ec138d",
    "votes(address,uint256)": "9f2524ee"
  },
  "id": 9
}