{
  "abi": [
    {
      "inputs": [],
      "stateMutability": "nonpayable",
      "type": "constructor"
    },
    {
      "inputs": [
        {
          "internalType": "address[]",
          "name": "_voters",
          "type": "address[]"
        }
      ],
      "name": "addVoters",
      "outputs": [],
      "stateMutability": "nonpayable",
      "type": "function"
    },
    {
      "inputs": [],
      "name": "admin",
      "outputs": [
        {
          "internalType": "address",
          "name": "",
          "type": "address"
        }
      ],
      "stateMutability": "view",
      "type": "function"
    },
    {
      "inputs": [
        {
          "internalType": "uint256",
          "name": "",
          "type": "uint256"
        }
      ],
      "name": "ballots",
      "outputs": [
        {
          "internalType": "uint256",
          "name": "id",
          "type": "uint256"
        },
        {
          "internalType": "string",
          "name": "name",
          "type": "string"
        },
        {
          "internalType": "uint256",
          "name": "end",
          "type": "uint256"
        }
      ],
      "stateMutability": "view",
      "type": "function"
    },
    {
      "inputs": [
        {
          "internalType": "string",
          "name": "name",
          "type": "string"
        },
        {
          "internalType": "string[]",
          "name": "choices",
          "type": "string[]"
        },
        {
          "internalType": "uint256",
          "name": "offset",
          "type": "uint256"
        }
      ],
      "name": "createBallot",
      "outputs": [],
      "stateMutability": "nonpayable",
      "type": "function"
    },
    {
      "inputs": [
        {
          "internalType": "uint256",
          "name": "from",
          "type": "uint256"
        },
        {
          "internalType": "uint256",
          "name": "offset",
          "type": "uint256"
        }
      ],
      "name": "getBallots",
      "outputs": [
        {
          "components": [
            {
              "internalType": "uint256",
              "name": "id",
              "type": "uint256"
            },
            {
              "internalType": "string",
              "name": "name",
              "type": "string"
            },
            {
              "components": [
                {
                  "internalType": "uint256",
                  "name": "id",
                  "type": "uint256"
                },
                {
                  "internalType": "string",
                  "name": "name",
                  "type": "string"
                },
                {
                  "internalType": "uint256",
                  "name": "votes",
                  "type": "uint256"
                }
              ],
              "internalType": "struct Voting.Choice[]",
              "name": "choices",
              "type": "tuple[]"
            },
            {
              "internalType": "uint256",
              "name": "end",
              "type": "uint256"
            }
          ],
          "internalType": "struct Voting.Ballot[]",
          "name": "",
          "type": "tuple[]"
        }
      ],
      "stateMutability": "view",
      "type": "function"
    },
    {
      "inputs": [
        {
          "internalType": "uint256",
          "name": "i",
          "type": "uint256"
        }
      ],
      "name": "getChoices",
      "outputs": [
        {
          "components": [
            {
              "internalType": "uint256",
              "name": "id",
              "type": "uint256"
            },
            {
              "internalType": "string",
              "name": "name",
              "type": "string"
            },
            {
              "internalType": "uint256",
              "name": "votes",
              "type": "uint256"
            }
          ],
          "internalType": "struct Voting.Choice[]",
          "name": "",
          "type": "tuple[]"
        }
      ],
      "stateMutability": "view",
      "type": "function"
    },
    {
      "inputs": [],
      "name": "nextBallotId",
      "outputs": [
        {
          "internalType": "uint256",
          "name": "",
          "type": "uint256"
        }
      ],
      "stateMutability": "view",
      "type": "function"
    },
    {
      "inputs": [
        {
          "internalType": "uint256",
          "name": "ballotId",
          "type": "uint256"
        }
      ],
      "name": "results",
      "outputs": [
        {
          "components": [
            {
              "internalType": "uint256",
              "name": "id",
              "type": "uint256"
            },
            {
              "internalType": "string",
              "name": "name",
              "type": "string"
            },
            {
              "internalType": "uint256",
              "name": "votes",
              "type": "uint256"
            }
          ],
          "internalType": "struct Voting.Choice[]",
          "name": "",
          "type": "tuple[]"
        }
      ],
      "stateMutability": "view",
      "type": "function"
    },
    {
      "inputs": [
        {
          "internalType": "uint256",
          "name": "ballotId",
          "type": "uint256"
        },
        {
          "internalType": "uint256",
          "name": "choiceId",
          "type": "uint256"
        }
      ],
      "name": "vote",
      "outputs": [],
      "stateMutability": "nonpayable",
      "type": "function"
    },
    {
      "inputs": [
        {
          "internalType": "address",
          "name": "",
          "type": "address"
        }
      ],
      "name": "voters",
      "outputs": [
        {
          "internalType": "bool",
          "name": "",
          "type": "bool"
        }
      ],
      "stateMutability": "view",
      "type": "function"
    },
    {
      "inputs": [
        {
          "internalType": "address",
          "name": "",
          "type": "address"
        },
        {
          "internalType": "uint256",
          "name": "",
          "type": "uint256"
        }
      ],
      "name": "votes",
      "outputs": [
        {
          "internalType": "bool",
          "name": "",
          "type": "bool"
        }
      ],
      "stateMutability": "view",
      "type": "function"
    }
  ],
  "bytecode": {
    "object": "0x608060405234801561001057600080fd5b50600080546001600160a01b03191633179055611322806100326000396000f3fe608060405234801561001057600080fd5b50600436106100a95760003560e01c80638203373a116100715780638203373a146101415780639f2524ee14610154578063a3ec138d14610192578063b384abef146101b5578063dc6bfbb5146101c8578063f851a440146101df57600080fd5b806318da2cb2146100ae5780631b0c27da146100d757806320faae8e146100ea5780635c632b38146100ff5780635e241a3e14610121575b600080fd5b6100c16100bc366004610c8c565b61020a565b6040516100ce9190610ceb565b60405180910390f35b6100c16100e5366004610c8c565b610325565b6100fd6100f8366004610e23565b6104ae565b005b61011261010d366004610c8c565b6106fc565b6040516100ce93929190610f12565b61013461012f366004610f3b565b6107a7565b6040516100ce9190610f5d565b6100fd61014f36600461105c565b610a67565b6101826101623660046110ed565b600360209081526000928352604080842090915290825290205460ff1681565b60405190151581526020016100ce565b6101826101a0366004611117565b60016020526000908152604090205460ff1681565b6100fd6101c3366004610f3b565b610add565b6101d160045481565b6040519081526020016100ce565b6000546101f2906001600160a01b031681565b6040516001600160a01b0390911681526020016100ce565b606060026000838152602001908152602001600020600201805480602002602001604051908101604052809291908181526020016000905b8282101561031a57838290600052602060002090600302016040518060600160405290816000820154815260200160018201805461027f90611139565b80601f01602080910402602001604051908101604052809291908181526020018280546102ab90611139565b80156102f85780601f106102cd576101008083540402835291602001916102f8565b820191906000526020600020905b8154815290600101906020018083116102db57829003601f168201915b5050505050815260200160028201548152505081526020019060010190610242565b505050509050919050565b60008181526002602052604090206003015460609042116103a95760405162461bcd60e51b815260206004820152603360248201527f526573756c74732061726520617661696c61626c65206f6e6c7920666f72207460448201527268652066696e697368656420766f74696e677360681b60648201526084015b60405180910390fd5b60008281526002602081815260408084209092018054835181840281018401909452808452929390929184015b8282101561031a57838290600052602060002090600302016040518060600160405290816000820154815260200160018201805461041390611139565b80601f016020809104026020016040519081016040528092919081815260200182805461043f90611139565b801561048c5780601f106104615761010080835404028352916020019161048c565b820191906000526020600020905b81548152906001019060200180831161046f57829003601f168201915b50505050508152602001600282015481525050815260200190600101906103d6565b6000546001600160a01b031633146104f65760405162461bcd60e51b815260206004820152600b60248201526a4f6e6c792041646d696e2160a81b60448201526064016103a0565b825160000361053d5760405162461bcd60e51b81526020600482015260136024820152724e616d652063616e277420626520656d70747960681b60448201526064016103a0565b60028251101561059a5760405162461bcd60e51b815260206004820152602260248201527f54686572652073686f756c64206265206174206c6561737420322063686f6963604482015261657360f01b60648201526084016103a0565b8042106105fd5760405162461bcd60e51b815260206004820152602b60248201527f43616e277420637265617465206120766f74696e67207769746820746865206460448201526a185d19481a5b881c185cdd60aa1b60648201526084016103a0565b600454600081815260026020526040902090815560010161061e84826111c1565b5060045460009081526002602052604081206003018290555b82518110156106e157600260006004548152602001908152602001600020600201604051806060016040528083815260200185848151811061067b5761067b611281565b6020908102919091018101518252600091810182905283546001818101865594835291819020835160039093020191825582015191929091908201906106c190826111c1565b5060408201518160020155505080806106d9906112ad565b915050610637565b50600480549060006106f2836112ad565b9190505550505050565b6002602052600090815260409020805460018201805491929161071e90611139565b80601f016020809104026020016040519081016040528092919081815260200182805461074a90611139565b80156107975780601f1061076c57610100808354040283529160200191610797565b820191906000526020600020905b81548152906001019060200180831161077a57829003601f168201915b5050505050908060030154905083565b6060600082846004546107ba91906112c6565b116107d257836004546107cd91906112c6565b6107d4565b825b905060008167ffffffffffffffff8111156107f1576107f1610d6c565b60405190808252806020026020018201604052801561084d57816020015b61083a6040518060800160405280600081526020016060815260200160608152602001600081525090565b81526020019060019003908161080f5790505b509050845b61085c83876112d9565b811015610a5c57600260008281526020019081526020016000206040518060800160405290816000820154815260200160018201805461089b90611139565b80601f01602080910402602001604051908101604052809291908181526020018280546108c790611139565b80156109145780601f106108e957610100808354040283529160200191610914565b820191906000526020600020905b8154815290600101906020018083116108f757829003601f168201915b5050505050815260200160028201805480602002602001604051908101604052809291908181526020016000905b82821015610a1a57838290600052602060002090600302016040518060600160405290816000820154815260200160018201805461097f90611139565b80601f01602080910402602001604051908101604052809291908181526020018280546109ab90611139565b80156109f85780601f106109cd576101008083540402835291602001916109f8565b820191906000526020600020905b8154815290600101906020018083116109db57829003601f168201915b5050505050815260200160028201548152505081526020019060010190610942565b505050508152602001600382015481525050828281518110610a3e57610a3e611281565b60200260200101819052508080610a54906112ad565b915050610852565b509150505b92915050565b60005b81811015610ad8576001806000858585818110610a8957610a89611281565b9050602002016020810190610a9e9190611117565b6001600160a01b031681526020810191909152604001600020805460ff191691151591909117905580610ad0816112ad565b915050610a6a565b505050565b3360009081526001602081905260409091205460ff16151514610b425760405162461bcd60e51b815260206004820152601c60248201527f4f6e6c7920646566696e656420766f746572732063616e20766f74650000000060448201526064016103a0565b33600090815260036020908152604080832085845290915290205460ff1615610bad5760405162461bcd60e51b815260206004820152601860248201527f566f7465722063616e20766f7465206f6e6c79206f6e6365000000000000000060448201526064016103a0565b6000828152600260205260409020600301544210610c1b5760405162461bcd60e51b815260206004820152602560248201527f43616e206f6e6c7920766f746520756e74696c2074686520656e64206f6620766044820152646f74696e6760d81b60648201526084016103a0565b600082815260026020819052604090912001805482908110610c3f57610c3f611281565b600091825260208220600260039092020101805491610c5d836112ad565b909155505033600090815260036020908152604080832094835293905291909120805460ff1916600117905550565b600060208284031215610c9e57600080fd5b5035919050565b6000815180845260005b81811015610ccb57602081850181015186830182015201610caf565b506000602082860101526020601f19601f83011685010191505092915050565b60006020808301818452808551808352604092508286019150828160051b87010184880160005b83811015610d5e57603f19898403018552815160608151855288820151818a870152610d4082870182610ca5565b92890151958901959095525094870194925090860190600101610d12565b509098975050505050505050565b634e487b7160e01b600052604160045260246000fd5b604051601f8201601f1916810167ffffffffffffffff81118282101715610dab57610dab610d6c565b604052919050565b600082601f830112610dc457600080fd5b813567ffffffffffffffff811115610dde57610dde610d6c565b610df1601f8201601f1916602001610d82565b818152846020838601011115610e0657600080fd5b816020850160208301376000918101602001919091529392505050565b600080600060608486031215610e3857600080fd5b833567ffffffffffffffff80821115610e5057600080fd5b610e5c87838801610db3565b9450602091508186013581811115610e7357600080fd5b8601601f81018813610e8457600080fd5b803582811115610e9657610e96610d6c565b8060051b610ea5858201610d82565b918252828101850191858101908b841115610ebf57600080fd5b86850192505b83831015610efb57823586811115610edd5760008081fd5b610eeb8d8983890101610db3565b8352509186019190860190610ec5565b989b989a5050505060409690960135955050505050565b838152606060208201526000610f2b6060830185610ca5565b9050826040830152949350505050565b60008060408385031215610f4e57600080fd5b50508035926020909101359150565b6000602080830181845280855180835260408601915060408160051b870101925083870160005b8281101561104f57603f1988860301845281518051865286810151608088880152610fb26080880182610ca5565b9050604082015187820360408901528181518084528a840191508a8160051b8501018b8401935060005b8281101561102a57601f198683030184528451805183528d81015160608f85015261100a6060850182610ca5565b6040928301519490920193909352948d0194938d01939150600101610fdc565b506060958601519a909501999099525091965050509285019290850190600101610f84565b5092979650505050505050565b6000806020838503121561106f57600080fd5b823567ffffffffffffffff8082111561108757600080fd5b818501915085601f83011261109b57600080fd5b8135818111156110aa57600080fd5b8660208260051b85010111156110bf57600080fd5b60209290920196919550909350505050565b80356001600160a01b03811681146110e857600080fd5b919050565b6000806040838503121561110057600080fd5b611109836110d1565b946020939093013593505050565b60006020828403121561112957600080fd5b611132826110d1565b9392505050565b600181811c9082168061114d57607f821691505b60208210810361116d57634e487b7160e01b600052602260045260246000fd5b50919050565b601f821115610ad857600081815260208120601f850160051c8101602086101561119a5750805b601f850160051c820191505b818110156111b9578281556001016111a6565b505050505050565b815167ffffffffffffffff8111156111db576111db610d6c565b6111ef816111e98454611139565b84611173565b602080601f831160018114611224576000841561120c5750858301515b600019600386901b1c1916600185901b1785556111b9565b600085815260208120601f198616915b8281101561125357888601518255948401946001909101908401611234565b50858210156112715787850151600019600388901b60f8161c191681555b5050505050600190811b01905550565b634e487b7160e01b600052603260045260246000fd5b634e487b7160e01b600052601160045260246000fd5b6000600182016112bf576112bf611297565b5060010190565b81810381811115610a6157610a61611297565b80820180821115610a6157610a6161129756fea26469706673582212203c39c659e5f0fb762b915fae7d441b379013734c7d97beb0e68619f38e2d37bd64736f6c63430008110033",
    "linkReferences": {}
  },
  "methodIdentifiers": {
    "addVoters(address[])": "8203373a",
    "admin()": "f851a440",
    "ballots(uint256)": "5c632b38",
    "createBallot(string,string[],uint256)": "20faae8e",
    "getBallots(uint256,uint256)": "5e241a3e",
    "getChoices(uint256)": "18da2cb2",
    "nextBallotId()": "dc6bfbb5",
    "results(uint256)": "1b0c27da",
    "vote(uint256,uint256)": "b384abef",
    "voters(address)": "a3ec138d",
    "votes(address,uint256)": "9f2524ee"
  },
  "id": 9
}