{
  "abi": [
    {
      "inputs": [],
      "stateMutability": "nonpayable",
      "type": "constructor"
    },
    {
      "inputs": [
        {
          "internalType": "address[]",
          "name": "_voters",
          "type": "address[]"
        }
      ],
      "name": "addVoters",
      "outputs": [],
      "stateMutability": "nonpayable",
      "type": "function"
    },
    {
      "inputs": [],
      "name": "admin",
      "outputs": [
        {
          "internalType": "address",
          "name": "",
          "type": "address"
        }
      ],
      "stateMutability": "view",
      "type": "function"
    },
    {
      "inputs": [
        {
          "internalType": "uint256",
          "name": "",
          "type": "uint256"
        }
      ],
      "name": "ballots",
      "outputs": [
        {
          "internalType": "uint256",
          "name": "id",
          "type": "uint256"
        },
        {
          "internalType": "string",
          "name": "name",
          "type": "string"
        },
        {
          "internalType": "uint256",
          "name": "end",
          "type": "uint256"
        }
      ],
      "stateMutability": "view",
      "type": "function"
    },
    {
      "inputs": [
        {
          "internalType": "string",
          "name": "name",
          "type": "string"
        },
        {
          "internalType": "string[]",
          "name": "choices",
          "type": "string[]"
        },
        {
          "internalType": "uint256",
          "name": "offset",
          "type": "uint256"
        }
      ],
      "name": "createBallot",
      "outputs": [],
      "stateMutability": "nonpayable",
      "type": "function"
    },
    {
      "inputs": [
        {
          "internalType": "uint256[]",
          "name": "ballotIds",
          "type": "uint256[]"
        }
      ],
      "name": "fetchAlreadyVotedBallots",
      "outputs": [
        {
          "internalType": "bool[]",
          "name": "",
          "type": "bool[]"
        }
      ],
      "stateMutability": "view",
      "type": "function"
    },
    {
      "inputs": [
        {
          "internalType": "uint256",
          "name": "from",
          "type": "uint256"
        },
        {
          "internalType": "uint256",
          "name": "offset",
          "type": "uint256"
        }
      ],
      "name": "getBallots",
      "outputs": [
        {
          "components": [
            {
              "internalType": "uint256",
              "name": "id",
              "type": "uint256"
            },
            {
              "internalType": "string",
              "name": "name",
              "type": "string"
            },
            {
              "components": [
                {
                  "internalType": "uint256",
                  "name": "id",
                  "type": "uint256"
                },
                {
                  "internalType": "string",
                  "name": "name",
                  "type": "string"
                },
                {
                  "internalType": "uint256",
                  "name": "votes",
                  "type": "uint256"
                }
              ],
              "internalType": "struct Voting.Choice[]",
              "name": "choices",
              "type": "tuple[]"
            },
            {
              "internalType": "uint256",
              "name": "end",
              "type": "uint256"
            }
          ],
          "internalType": "struct Voting.Ballot[]",
          "name": "",
          "type": "tuple[]"
        }
      ],
      "stateMutability": "view",
      "type": "function"
    },
    {
      "inputs": [
        {
          "internalType": "uint256",
          "name": "i",
          "type": "uint256"
        }
      ],
      "name": "getChoices",
      "outputs": [
        {
          "components": [
            {
              "internalType": "uint256",
              "name": "id",
              "type": "uint256"
            },
            {
              "internalType": "string",
              "name": "name",
              "type": "string"
            },
            {
              "internalType": "uint256",
              "name": "votes",
              "type": "uint256"
            }
          ],
          "internalType": "struct Voting.Choice[]",
          "name": "",
          "type": "tuple[]"
        }
      ],
      "stateMutability": "view",
      "type": "function"
    },
    {
      "inputs": [],
      "name": "nextBallotId",
      "outputs": [
        {
          "internalType": "uint256",
          "name": "",
          "type": "uint256"
        }
      ],
      "stateMutability": "view",
      "type": "function"
    },
    {
      "inputs": [
        {
          "internalType": "uint256",
          "name": "ballotId",
          "type": "uint256"
        }
      ],
      "name": "results",
      "outputs": [
        {
          "components": [
            {
              "internalType": "uint256",
              "name": "id",
              "type": "uint256"
            },
            {
              "internalType": "string",
              "name": "name",
              "type": "string"
            },
            {
              "internalType": "uint256",
              "name": "votes",
              "type": "uint256"
            }
          ],
          "internalType": "struct Voting.Choice[]",
          "name": "",
          "type": "tuple[]"
        }
      ],
      "stateMutability": "view",
      "type": "function"
    },
    {
      "inputs": [
        {
          "internalType": "uint256",
          "name": "ballotId",
          "type": "uint256"
        },
        {
          "internalType": "uint256",
          "name": "choiceId",
          "type": "uint256"
        }
      ],
      "name": "vote",
      "outputs": [],
      "stateMutability": "nonpayable",
      "type": "function"
    },
    {
      "inputs": [
        {
          "internalType": "address",
          "name": "",
          "type": "address"
        }
      ],
      "name": "voters",
      "outputs": [
        {
          "internalType": "bool",
          "name": "",
          "type": "bool"
        }
      ],
      "stateMutability": "view",
      "type": "function"
    },
    {
      "inputs": [
        {
          "internalType": "address",
          "name": "",
          "type": "address"
        },
        {
          "internalType": "uint256",
          "name": "",
          "type": "uint256"
        }
      ],
      "name": "votes",
      "outputs": [
        {
          "internalType": "bool",
          "name": "",
          "type": "bool"
        }
      ],
      "stateMutability": "view",
      "type": "function"
    }
  ],
  "bytecode": {
    "object": "0x608060405234801561001057600080fd5b50600080546001600160a01b031916331790556114b3806100326000396000f3fe608060405234801561001057600080fd5b50600436106100b45760003560e01c80639f2524ee116100715780639f2524ee1461015f578063a3ec138d1461019d578063b384abef146101c0578063dc6bfbb5146101d3578063dcefb1b5146101ea578063f851a4401461020a57600080fd5b806318da2cb2146100b95780631b0c27da146100e257806320faae8e146100f55780635c632b381461010a5780635e241a3e1461012c5780638203373a1461014c575b600080fd5b6100cc6100c7366004610d2f565b610235565b6040516100d99190610d8e565b60405180910390f35b6100cc6100f0366004610d2f565b610350565b610108610103366004610eea565b6104d9565b005b61011d610118366004610d2f565b610727565b6040516100d993929190610fcc565b61013f61013a366004610ff5565b6107d2565b6040516100d99190611017565b61010861015a366004611116565b610a92565b61018d61016d3660046111a7565b600360209081526000928352604080842090915290825290205460ff1681565b60405190151581526020016100d9565b61018d6101ab3660046111d1565b60016020526000908152604090205460ff1681565b6101086101ce366004610ff5565b610b08565b6101dc60045481565b6040519081526020016100d9565b6101fd6101f83660046111f3565b610c52565b6040516100d99190611284565b60005461021d906001600160a01b031681565b6040516001600160a01b0390911681526020016100d9565b606060026000838152602001908152602001600020600201805480602002602001604051908101604052809291908181526020016000905b828210156103455783829060005260206000209060030201604051806060016040529081600082015481526020016001820180546102aa906112ca565b80601f01602080910402602001604051908101604052809291908181526020018280546102d6906112ca565b80156103235780601f106102f857610100808354040283529160200191610323565b820191906000526020600020905b81548152906001019060200180831161030657829003601f168201915b505050505081526020016002820154815250508152602001906001019061026d565b505050509050919050565b60008181526002602052604090206003015460609042116103d45760405162461bcd60e51b815260206004820152603360248201527f526573756c74732061726520617661696c61626c65206f6e6c7920666f72207460448201527268652066696e697368656420766f74696e677360681b60648201526084015b60405180910390fd5b60008281526002602081815260408084209092018054835181840281018401909452808452929390929184015b8282101561034557838290600052602060002090600302016040518060600160405290816000820154815260200160018201805461043e906112ca565b80601f016020809104026020016040519081016040528092919081815260200182805461046a906112ca565b80156104b75780601f1061048c576101008083540402835291602001916104b7565b820191906000526020600020905b81548152906001019060200180831161049a57829003601f168201915b5050505050815260200160028201548152505081526020019060010190610401565b6000546001600160a01b031633146105215760405162461bcd60e51b815260206004820152600b60248201526a4f6e6c792041646d696e2160a81b60448201526064016103cb565b82516000036105685760405162461bcd60e51b81526020600482015260136024820152724e616d652063616e277420626520656d70747960681b60448201526064016103cb565b6002825110156105c55760405162461bcd60e51b815260206004820152602260248201527f54686572652073686f756c64206265206174206c6561737420322063686f6963604482015261657360f01b60648201526084016103cb565b8042106106285760405162461bcd60e51b815260206004820152602b60248201527f43616e277420637265617465206120766f74696e67207769746820746865206460448201526a185d19481a5b881c185cdd60aa1b60648201526084016103cb565b60045460008181526002602052604090209081556001016106498482611352565b5060045460009081526002602052604081206003018290555b825181101561070c5760026000600454815260200190815260200160002060020160405180606001604052808381526020018584815181106106a6576106a6611412565b6020908102919091018101518252600091810182905283546001818101865594835291819020835160039093020191825582015191929091908201906106ec9082611352565b5060408201518160020155505080806107049061143e565b915050610662565b506004805490600061071d8361143e565b9190505550505050565b60026020526000908152604090208054600182018054919291610749906112ca565b80601f0160208091040260200160405190810160405280929190818152602001828054610775906112ca565b80156107c25780601f10610797576101008083540402835291602001916107c2565b820191906000526020600020905b8154815290600101906020018083116107a557829003601f168201915b5050505050908060030154905083565b6060600082846004546107e59190611457565b116107fd57836004546107f89190611457565b6107ff565b825b905060008167ffffffffffffffff81111561081c5761081c610e0f565b60405190808252806020026020018201604052801561087857816020015b6108656040518060800160405280600081526020016060815260200160608152602001600081525090565b81526020019060019003908161083a5790505b509050845b610887838761146a565b811015610a875760026000828152602001908152602001600020604051806080016040529081600082015481526020016001820180546108c6906112ca565b80601f01602080910402602001604051908101604052809291908181526020018280546108f2906112ca565b801561093f5780601f106109145761010080835404028352916020019161093f565b820191906000526020600020905b81548152906001019060200180831161092257829003601f168201915b5050505050815260200160028201805480602002602001604051908101604052809291908181526020016000905b82821015610a455783829060005260206000209060030201604051806060016040529081600082015481526020016001820180546109aa906112ca565b80601f01602080910402602001604051908101604052809291908181526020018280546109d6906112ca565b8015610a235780601f106109f857610100808354040283529160200191610a23565b820191906000526020600020905b815481529060010190602001808311610a0657829003601f168201915b505050505081526020016002820154815250508152602001906001019061096d565b505050508152602001600382015481525050828281518110610a6957610a69611412565b60200260200101819052508080610a7f9061143e565b91505061087d565b509150505b92915050565b60005b81811015610b03576001806000858585818110610ab457610ab4611412565b9050602002016020810190610ac991906111d1565b6001600160a01b031681526020810191909152604001600020805460ff191691151591909117905580610afb8161143e565b915050610a95565b505050565b33600090815260036020908152604080832085845290915290205460ff1615610b735760405162461bcd60e51b815260206004820152601860248201527f566f7465722063616e20766f7465206f6e6c79206f6e6365000000000000000060448201526064016103cb565b6000828152600260205260409020600301544210610be15760405162461bcd60e51b815260206004820152602560248201527f43616e206f6e6c7920766f746520756e74696c2074686520656e64206f6620766044820152646f74696e6760d81b60648201526084016103cb565b600082815260026020819052604090912001805482908110610c0557610c05611412565b600091825260208220600260039092020101805491610c238361143e565b909155505033600090815260036020908152604080832094835293905291909120805460ff1916600117905550565b60606000825167ffffffffffffffff811115610c7057610c70610e0f565b604051908082528060200260200182016040528015610c99578160200160208202803683370190505b50905060005b8351811015610d28573360009081526003602052604081208551909190869084908110610cce57610cce611412565b60209081029190910181015182528101919091526040016000205460ff1615610d16576001828281518110610d0557610d05611412565b911515602092830291909101909101525b80610d208161143e565b915050610c9f565b5092915050565b600060208284031215610d4157600080fd5b5035919050565b6000815180845260005b81811015610d6e57602081850181015186830182015201610d52565b506000602082860101526020601f19601f83011685010191505092915050565b60006020808301818452808551808352604092508286019150828160051b87010184880160005b83811015610e0157603f19898403018552815160608151855288820151818a870152610de382870182610d48565b92890151958901959095525094870194925090860190600101610db5565b509098975050505050505050565b634e487b7160e01b600052604160045260246000fd5b604051601f8201601f1916810167ffffffffffffffff81118282101715610e4e57610e4e610e0f565b604052919050565b600082601f830112610e6757600080fd5b813567ffffffffffffffff811115610e8157610e81610e0f565b610e94601f8201601f1916602001610e25565b818152846020838601011115610ea957600080fd5b816020850160208301376000918101602001919091529392505050565b600067ffffffffffffffff821115610ee057610ee0610e0f565b5060051b60200190565b600080600060608486031215610eff57600080fd5b833567ffffffffffffffff80821115610f1757600080fd5b610f2387838801610e56565b9450602091508186013581811115610f3a57600080fd5b8601601f81018813610f4b57600080fd5b8035610f5e610f5982610ec6565b610e25565b81815260059190911b8201840190848101908a831115610f7d57600080fd5b8584015b83811015610fb557803586811115610f995760008081fd5b610fa78d8983890101610e56565b845250918601918601610f81565b50979a979950505050604095909501359450505050565b838152606060208201526000610fe56060830185610d48565b9050826040830152949350505050565b6000806040838503121561100857600080fd5b50508035926020909101359150565b6000602080830181845280855180835260408601915060408160051b870101925083870160005b8281101561110957603f198886030184528151805186528681015160808888015261106c6080880182610d48565b9050604082015187820360408901528181518084528a840191508a8160051b8501018b8401935060005b828110156110e457601f198683030184528451805183528d81015160608f8501526110c46060850182610d48565b6040928301519490920193909352948d0194938d01939150600101611096565b506060958601519a90950199909952509196505050928501929085019060010161103e565b5092979650505050505050565b6000806020838503121561112957600080fd5b823567ffffffffffffffff8082111561114157600080fd5b818501915085601f83011261115557600080fd5b81358181111561116457600080fd5b8660208260051b850101111561117957600080fd5b60209290920196919550909350505050565b80356001600160a01b03811681146111a257600080fd5b919050565b600080604083850312156111ba57600080fd5b6111c38361118b565b946020939093013593505050565b6000602082840312156111e357600080fd5b6111ec8261118b565b9392505050565b6000602080838503121561120657600080fd5b823567ffffffffffffffff81111561121d57600080fd5b8301601f8101851361122e57600080fd5b803561123c610f5982610ec6565b81815260059190911b8201830190838101908783111561125b57600080fd5b928401925b8284101561127957833582529284019290840190611260565b979650505050505050565b6020808252825182820181905260009190848201906040850190845b818110156112be5783511515835292840192918401916001016112a0565b50909695505050505050565b600181811c908216806112de57607f821691505b6020821081036112fe57634e487b7160e01b600052602260045260246000fd5b50919050565b601f821115610b0357600081815260208120601f850160051c8101602086101561132b5750805b601f850160051c820191505b8181101561134a57828155600101611337565b505050505050565b815167ffffffffffffffff81111561136c5761136c610e0f565b6113808161137a84546112ca565b84611304565b602080601f8311600181146113b5576000841561139d5750858301515b600019600386901b1c1916600185901b17855561134a565b600085815260208120601f198616915b828110156113e4578886015182559484019460019091019084016113c5565b50858210156114025787850151600019600388901b60f8161c191681555b5050505050600190811b01905550565b634e487b7160e01b600052603260045260246000fd5b634e487b7160e01b600052601160045260246000fd5b60006001820161145057611450611428565b5060010190565b81810381811115610a8c57610a8c611428565b80820180821115610a8c57610a8c61142856fea2646970667358221220c906bebde00bd487eb2adcc7cc3cc1a85fbebbd8c67ae58da37a93e91aaea0cc64736f6c63430008110033",
    "linkReferences": {}
  },
  "methodIdentifiers": {
    "addVoters(address[])": "8203373a",
    "admin()": "f851a440",
    "ballots(uint256)": "5c632b38",
    "createBallot(string,string[],uint256)": "20faae8e",
    "fetchAlreadyVotedBallots(uint256[])": "dcefb1b5",
    "getBallots(uint256,uint256)": "5e241a3e",
    "getChoices(uint256)": "18da2cb2",
    "nextBallotId()": "dc6bfbb5",
    "results(uint256)": "1b0c27da",
    "vote(uint256,uint256)": "b384abef",
    "voters(address)": "a3ec138d",
    "votes(address,uint256)": "9f2524ee"
  },
  "id": 12
}